:020000040000FA
:060000000A128A110C280F
:10000800FE00030EF5000A08F6000A128A11252ED2
:100018000A128A110F280A128A11D0270A128A1185
:10002800BE000A128A11D1270A128A11BF000A12C9
:100038008A11D2270A128A11C0000A128A11D327FC
:100048000A128A11C10083132030840030300A124A
:100058008A11BB270A128A11F701F801F901FA017E
:1000680083010A128A1138280A128A1195270A125E
:100078008A11831203139F149F1843284428602869
:100088001F0CBB003B0C0F39053A031D4C284D28AB
:1000980052281F08C33918389F0056281F08C3392B
:1000A80014389F00203083120313BB00BB0B5A285F
:1000B8000000831203139F140C1E63286428C82AA7
:1000C80040084104031969286A28AE286D30B40035
:1000D8008430B5000A128A1103270A128A112E30B9
:1000E80083120313B4008530B5000A128A1103275E
:1000F8000A128A11753083120313B4008530B500D3
:100108000A128A1103270A128A1162308312031312
:10011800B4008530B5000A128A1103270A128A1121
:10012800883083120313B4008530B5000A128A118F
:1001380003270A128A11493083120313B400853049
:10014800B5000A128A1103270A128A1183120313AF
:10015800C001C10131302F06031DB328B428FB2983
:10016800E330B4008430B5000A128A1103270A125A
:100178008A11133083120313B4008430B5000A12B5
:100188008A1103270A128A11013083120313C0004F
:100198000030C100AF012F080319D328D428CF2875
:1001A80031302F06031DD928DA28FF2888010808CE
:1001B800BB0003103B0C803E95000818E428E82893
:1001C800831203139716EB288312031397128316CF
:1001D80003131E0883120313BB0007300310BB0C64
:1001E800FF3E031DF2283B08BC00BC0E17083C0666
:1001F800EF393C06970032302F06031D04290529E4
:100208002B29803088000808BB0003103B0C803E77
:100218009500081810291429831203139716172913
:10022800831203139712831603131E0883120313F2
:10023800BB0007300310BB0CFF3E031D1E293B0803
:10024800BC00BC0E17083C06EF393C06970033305B
:100258002F06031D302931295729FF308800080847
:10026800BB0003103B0C803E950008183C29402930
:1002780083120313971643298312031397128316C5
:1002880003131E0883120313BB0007300310BB0CB3
:10029800FF3E031D4A293B08BC00BC0E17083C065C
:1002A800EF393C0697009530B4008430B5000A1247
:1002B8008A1103270A128A11133083120313B40018
:1002C8008430B5000A128A1103270A128A110130F4
:1002D80083120313C0000030C100AF012F080319B7
:1002E80076297729722931302F06031D7C297D292B
:1002F800A22988010808BB0003103B0C803E9B0024
:10030800081887298B29831203139D168E298312B7
:1003180003139D12831603131E0883120313BB00D5
:1003280007300310BB0CFF3E031D95293B08BC009A
:10033800BC0E1D083C06EF393C069D0032302F06E6
:10034800031DA729A829CE29803088000808BB00EA
:1003580003103B0C803E9B000818B329B729831271
:1003680003139D16BA29831203139D1283160313D0
:100378001E0883120313BB0007300310BB0CFF3E9B
:10038800031DC1293B08BC00BC0E1D083C06EF3903
:100398003C069D0033302F06031DD329D429FA29A2
:1003A800FF3088000808BB0003103B0C803E9B0010
:1003B8000818DF29E329831203139D16E6298312FF
:1003C80003139D12831603131E0883120313BB0025
:1003D80007300310BB0CFF3E031DED293B08BC0092
:1003E800BC0E1D083C06EF393C069D00AF013230BB
:1003F8002F06031D002A012A902A0930B4008530EF
:10040800B5000A128A1103270A128A114030831292
:100418000313B4008430B5000A128A1103270A12A4
:100428008A11013083120313C0000030C100AF01EC
:100438002F080319202A212A1C2A31302F06031DD0
:10044800262A272A2F2A0830850005168516013006
:10045800C0000030C10032302F06031D342A352A6F
:100468003D2A04308500051785170230C00000308A
:10047800C10033302F06031D422A432A662A093059
:100488008500033083120313BD008A30BC00553049
:10049800BB00BB0B4D2ABC0B4D2ABD0B4D2A83124A
:1004A800031340034104031D5A2A5B2A5D2A0830BE
:1004B8008500023040064104031D632A642A662A27
:1004C8000430850034302F06031D6B2A6C2A8F2ACE
:1004D8000A308500033083120313BD008A30BC0044
:1004E8005530BB00BB0B762ABC0B762ABD0B762A8F
:1004F8008312031340034104031D832A842A862A96
:1005080008308500023040064104031D8C2A8D2ADC
:100518008F2A04308500AF0133302F06031D952A3A
:10052800962AAC2ABC30B4008430B5000A128A116D
:1005380003270A128A11013083120313C000003006
:10054800C100AF012F080319AA2AAB2AA62AAF01B6
:1005580034302F06031DB12AB22AC82ABC30B40091
:100568008430B5000A128A1103270A128A11013051
:1005780083120313C0000030C100AF012F08031914
:10058800C62AC72AC22AAF01061ACB2ACC2AD02AE1
:100598000130AD000030AE00061ED32AD42A402810
:1005A8002D032E04031DD92ADA2A40282B08013EE0
:1005B800AB002C080318013E003EAC002C08B1002B
:1005C8002B08B0003F08B3003E08B2000A128A1197
:1005D8007C270A128A111530831203133E063F0442
:1005E800031DF72AF82AFD2A1030BE000030BF008C
:1005F800052B3E08013EBE003F080318013E003EA1
:0E060800BF00AD01AE0140280A128A110C2875
:10080000FF1B0A2C83137F1883170008840A03191F
:10081000FF0A08007F087F398A000408840A031948
:10082000FF0A8200613449346E34673472346534AF
:10083000733465343A34203431342D342E3430342A
:1008400067347234613464346F3473342034323436
:100850002D342E3439343034673472346134643496
:100860006F347334203433342D342E3431343834EF
:10087000303467347234613464346F347334003428
:1008800031342E3446346F347234773461347234F8
:100890006434203432342E3446346F34723462344B
:1008A000613463346B34203433342E34743475340F
:1008B00072346E342034723469346734743468347A
:1008C000203434342E347434753472346E3420341D
:1008D0006C346534663474340034423469346534BD
:1008E0006E34763465346E34693464346F34203455
:1008F000613420346E347534653473347434723436
:100900006F342034703472346F346734723461342D
:100910006D34613420347434653472347234693423
:1009200063346F346C346134003445346C3469346E
:100930006A34613420346C346134203470346F3460
:1009400073346934633469346F346E3420346434FE
:1009500065346C34203473346534723476346F34D7
:10096000203432342034283461347234723469349F
:10097000623461342934003449346E34673472345B
:10098000653473346534203465346C342034633416
:1009900061347234613463347434653472342034B5
:1009A000613420346D346F34733474347234613490
:1009B0007234203465346E34203450344F34523421
:1009C00054344234003445346C3469346A3461340C
:1009D00020346C346134203470346F3473346934AF
:1009E000633469346F346E342034643465346C3469
:1009F000203473346534723476346F3420343134B7
:100A0000203428346134623461346A346F342934D8
:100A1000003445346C3469346A34613420346C34C5
:100A2000613420346134633463346934C334B3349F
:100A30006E34203471347534653420346434653454
:100A400073346534613420347234653461346C3409
:100A500069347A3461347234293400345134753451
:100A60006534203461346334633469346F346E34F4
:100A7000203464346534733465346134203465342F
:100A80006A346534633475347434613472343F3499
:100A900000342834343429344D346F34733474348E
:100AA000723461347234203470346F347434653489
:100AB0006E34633469346F346D3465347434723435
:100AC0006F34003428343234293443346F346E3474
:100AD000743472346F346C3461347234203443347F
:100AE0006134723472346F34003428343134293430
:100AF00043346F346E34743472346F346C34613414
:100B0000723420344234723461347A346F340034B5
:100B100028343334293443346F346E3474347234AB
:100B20006F346C346134723420344C344534443482
:100B3000733400348312031306189F2DA02DCE2D7D
:100B400079087A040319A52DA62DBB2D0A3085003E
:100B500005160330F2008A30F1005530F000F00B3A
:100B6000AF2DF10BAF2DF20BAF2DB62D0830831248
:100B700003138500CE2D0230850005160330F200E8
:100B80008A30F1005530F000F00BC42DF10BC42D6C
:100B9000F20BC42DCB2D8312031385018618D12DA2
:100BA000D22D002E79087A040319D72DD82DED2DDA
:100BB0000930850085160330F2008A30F100553087
:100BC000F000F00BE12DF10BE12DF20BE12DE82D02
:100BD0000830831203138500002E0130850085162E
:100BE0000330F2008A30F1005530F000F00BF62DA2
:100BF000F10BF62DF20BF62DFD2D8312031385015B
:100C00000619032E042E0C2E083085000130F90041
:100C10000030FA000516851686190F2E102E182E94
:100C2000043085000130F9000030FA0005178517FF
:100C3000861D1B2E1C2E232E061D1F2E202E232E1E
:100C40008501F901FA010B1008000B1C282E292E32
:100C50002E2E0A128A119A250A128A118312031360
:100C60008C1E332E342E382E1A08F3007308AF0072
:100C70000C1F3B2E3C2E932E1F0CF300730C0F39D0
:100C8000053A031D442E452E6C2E1E0888000808C8
:100C9000F3000310730C803E95000818502E542E5C
:100CA000831203139716572E83120313971283167A
:100CB00003131E08F30007300310F30CFF3E031D5F
:100CC0005C2E7308F400F40E8312031317087406E5
:100CD000EF3974069700922E1E0888000808F3006A
:100CE0000310730C803E9B000818772E7B2E831216
:100CF00003139D167E2E831203139D128316031376
:100D00001E08F30007300310F30CFF3E031D832E73
:100D10007308F400F40E831203131D087406EF39F0
:100D200074069D000C1376088A00750E8300FE0E73
:100D30007E0E090083160317890170308800FF308A
:100D40008316031386008501033089008801B930BA
:100D500087008113FF3095008312031385010F3044
:100D60008600890188018701831603139F131F12D0
:100D70009F12831203131F083F3980389F001F08FA
:100D8000C33914389F00203083120313B000B00B16
:100D9000C72E0000831203131F14FA3083160313A7
:100DA00092003F308312031397051708F0390C386F
:100DB00097001D08F0390C389D000F3095000F305A
:100DC0009B00CF3097059D121D128C1092141214A7
:100DD00012158C1CEC2EED2EE92E8C1083160313AD
:100DE00018121815831603178715CF3083160313AF
:100DF00099009A0183120313981718131816831673
:100E000003139816080083120313B901BA01322F95
:100E100039083407B7003508B6000318B60AB91FF9
:100E2000122FB603831203133608B8003808FF00E8
:100E3000370884000A128A1100240A128A119900C4
:100E40000D3083120313B700FB30B600B60B262F0C
:100E5000B70B262F013083120313B9070318BA0A00
:100E60000030BA073408B0003508B1000A128A1100
:100E700058270A128A118312031331083A02031DFC
:100E8000432F30083902031C462F472F082F0D30FF
:100E900099000D3083120313B700FB30B600B60B78
:100EA0004F2FB70B4F2F0B308312031399000800FD
:100EB000831203133008B2003108B300652F0130EC
:100EC000B2070318B30A0030B3073308FF00320833
:100ED00084000A128A1100240A128A11003A031DA2
:100EE000722F732F5F2F30083202B0003108031CBD
:100EF000310A3302B100080083120313320883124F
:100F000003178D00831203133008831203178C001C
:100F1000831603178C130C158B1355308D00AA30D4
:100F20008D008C140C118B1708000A128A11C3272C
:100F30000A128A110A128A119A260A128A110A12B0
:100F40008A11AA270A128A110A128A11CA270A12BA
:100F50008A1108008B178B150B100B1783160313C0
:100F60000C17831203130C13831603138C168312AE
:100F700003138C12080064008001840A040603191C
:100F800000340406BC2F831603130F178F160F1699
:100F90000F1408000F308316031396000B1008007F
:080FA000103400340134003468
:04400E00C420FF3F8C
:00000001FF
