:020000040000FA
:060000000A128A110C280F
:10000800FE00030EF1000A08F2000A128A11692A9A
:100018000A128A110F280A128A117A220A128A11E0
:10002800F7000A128A117B220A128A11F800A0012D
:10003800A101A201A301A401A501A601A701A8018C
:10004800A901AA01F90183010A128A11FE28FF1BDE
:10005800352883137F1883170008840A0319FF0AB9
:10006800080000308A000408840A820700346134DA
:100078000D3449346E3467347234653473346534FE
:10008800203465346C342034633461347234613420
:1000980063347434653472342034613420346D34FC
:1000A8006F34733474347234613472342034653488
:1000B8006E34203450344F345234543441340D3477
:1000C80000340D3449346E34673472346534733413
:1000D8006534203465346C342034633461347234CC
:1000E80061346334743465347234203461342034B8
:1000F8006D346F3473347434723461347234203430
:1001080065346E34203450344F34523454344234CD
:100118000D3400340D3428343134293444346534F2
:10012800733470346C346534673461347234203419
:1001380063346134643465346E3461342034643437
:100148006534203463346134723461346334743414
:10015800653472346534733400345134753465341D
:10016800203461346334633469346F346E3420343A
:1001780064346534733465346134203465346A34E6
:100188006534633475347434613472343F34003404
:100198000D34283432342934433461346D346234B4
:1001A800693461347234203450344F345234543406
:1001B800413400340D342834333429344334613421
:1001C8006D346234693461347234203450344F34BD
:1001D80052345434423400340D3468346F346C343F
:1001E800613420346D3475346E3464346F342134A2
:1001F8000D3400340A128A11F5210A128A11B63018
:1002080083120313B2003208F30020300A128A1155
:1002180048220A128A11033083120313B4000830EB
:10022800B3007630B200B20B1729B30B1729B40B01
:1002380017290000831203130C1E232924290F29D0
:1002480077087804031929292A2956297730AB0019
:100258008030AC000A128A11B0210A128A11543077
:1002680083120313AB008030AC000A128A11B0214C
:100278000A128A11923083120313AB008030AC004B
:100288000A128A11B0210A128A11A43083120313A8
:10029800AB008030AC000A128A11B0210A128A1110
:1002A800F701F80131307906031D5B295C296C29B7
:1002B800203083120313AB000030AC000A128A11FD
:1002C800B0210A128A110130F7000030F800F90154
:1002D80032307906031D712972298C290230831264
:1002E8000313AB008030AC000A128A11B0210A1245
:1002F8008A110130F7000030F800F9017908031974
:100308008629872982297908831203138500F90130
:1003180033307906031D912992290F292B30831236
:100328000313AB008030AC000A128A11B0210A1204
:100338008A110130F7000030F800F9017908031933
:10034800A629A729A2297908831203138600F9018F
:100358000F290A128A110C2883120313B001B10164
:10036800DF2930082B07AE002C08AD000318AD0AB2
:10037800B01FBF29AD03831203132D08AF002F0848
:10038800FF002E0884000A128A112B200A128A11F3
:1003980099000D3083120313AE00FB30AD00AD0B96
:1003A800D329AE0BD329013083120313B0070318E6
:1003B800B10A0030B1072B08F3002C08F4000A1228
:1003C8008A1124220A128A11740883120313310233
:1003D800031DF02973083002031CF329F429B529F9
:1003E8000800831603130F178F160F160F148316A2
:1003F8000317890188018316031385018601831277
:100408000313850186018B170B17831603138C16AC
:10041800831203138C1283160313181218158316EC
:1004280003178715CF308316031399009A01831297
:100438000313981718131816831603139816080031
:100448007308F5007408F6002F2A0130F507031821
:10045800F60A0030F607760883120313FF007508C2
:1004680084000A128A112B200A128A11003A031DED
:100478003E2A3F2A292A73087502F3007408031CD0
:10048800740A7602F4000800F5007508F400740890
:10049800F600562A0130F4007408F6070130F4001B
:1004A8007408F307730884000A128A1135200A12A7
:1004B8008A11F40076088400740883138000000809
:1004C800031D672A682A4E2A0800831203138C1E0C
:1004D8006E2A6F2A732A1A08F0007008F900720849
:1004E8008A00710E8300FE0E7E0E0900013400346E
:04400E00C420FF3F8C
:00000001FF
