:020000040000FA
:060000000A128A110C280F
:10000800FE00030EF5000A08F6000A128A114C2DAC
:100018000A128A110F280A128A1104270A128A1151
:10002800BD000A128A1105270A128A11BE000A1297
:100038008A1106270A128A11BF000A128A11072795
:100048000A128A11C00083132030840030300A124B
:100058008A11EF260A128A11F701F801F901FA014B
:10006800FB0183010A128A1139280A128A11C9264A
:100078000A128A11831203139F149F1844284528D3
:1000880061281F0CBB003B0C0F39053A031D4D2896
:100098004E2853281F08C33918389F0057281F08AF
:1000A800C33914389F00203083120313BB00BB0BE5
:1000B8005B280000831203139F140C1E6428652814
:1000C8007E2A3F08400403196A286B2878284B3099
:1000D800B4008330B5000A128A1137260A128A1131
:1000E80083120313BF01C00131302F06031D7D2881
:1000F8007E287E2A0130BF000030C000AF01652A8B
:100108003F084004031989288A28D9283B30B400BD
:100118008430B5000A128A1137260A128A1159301A
:1001280083120313B4008430B5000A128A113726EB
:100138000A128A11A03083120313B4008430B50068
:100148000A128A1137260A128A118D308312031374
:10015800B4008430B5000A128A1137260A128A11AF
:10016800B33083120313B4008430B5000A128A1125
:1001780037260A128A11743083120313B4008430AC
:10018800B5000A128A1137260A128A111D30831205
:100198000313B4008430B5000A128A1137260A12F4
:1001A8008A1183120313BF01C00131302F06031DCA
:1001B800DE28DF28262AF730B4008330B5000A127B
:1001C8008A1137260A128A117C3083120313B4006D
:1001D8008330B5000A128A1137260A128A110130B3
:1001E80083120313BF000030C000AF012F080319AA
:1001F800FE28FF28FA2831302F06031D0429052977
:100208002A2988010808BB0003103B0C803E950092
:1002180008180F2913298312031397161629831216
:1002280003139712831603131E0883120313BB00CC
:1002380007300310BB0CFF3E031D1D293B08BC0003
:10024800BC0E17083C06EF393C06970032302F06E3
:10025800031D2F2930295629803088000808BB0043
:1002680003103B0C803E950008183B293F29831258
:100278000313971642298312031397128316031345
:100288001E0883120313BB0007300310BB0CFF3E8C
:10029800031D49293B08BC00BC0E17083C06EF3972
:1002A8003C06970033302F06031D5B295C29822901
:1002B800FF3088000808BB0003103B0C803E950007
:1002C800081867296B298312031397166E2983125E
:1002D80003139712831603131E0883120313BB001C
:1002E80007300310BB0CFF3E031D75293B08BC00FB
:1002F800BC0E17083C06EF393C069700A930B4003D
:100308008330B5000A128A1137260A128A117C3006
:1003180083120313B4008330B5000A128A113726FA
:100328000A128A11013083120313BF000030C00083
:10033800AF012F080319A129A2299D2931302F06C1
:10034800031DA729A829CD2988010808BB00031087
:100358003B0C803E9B000818B229B6298312031370
:100368009D16B929831203139D12831603131E08C1
:1003780083120313BB0007300310BB0CFF3E031DA1
:10038800C0293B08BC00BC0E1D083C06EF393C06E2
:100398009D0032302F06031DD229D329F929803038
:1003A80088000808BB0003103B0C803E9B0008181F
:1003B800DE29E229831203139D16E529831203130C
:1003C8009D12831603131E0883120313BB00073004
:1003D8000310BB0CFF3E031DEC293B08BC00BC0E00
:1003E8001D083C06EF393C069D0033302F06031DDF
:1003F800FE29FF29252AFF3088000808BB000310C2
:100408003B0C803E9B0008180A2A0E2A831203130D
:100418009D16112A831203139D12831603131E08B7
:1004280083120313BB0007300310BB0CFF3E031DF0
:10043800182A3B08BC00BC0E1D083C06EF393C06D8
:100448009D00AF0132302F06031D2B2A2C2A422A89
:100458001330B4008330B5000A128A1137260A1205
:100468008A11013083120313BF000030C000AF01AE
:100478002F080319402A412A3C2AAF0133302F069E
:10048800031D472A482A5E2AD030B4008330B500BD
:100498000A128A1137260A128A11013083120313AD
:1004A800BF000030C000AF012F0803195C2A5D2A85
:1004B800582AAF0134302F06031D632A642A652A9F
:1004C8007E2835302F06031D6A2A6B2A842835308A
:1004D8002F06031D702A712A7E2A4B30B400833000
:1004E800B5000A128A1137260A128A1183120313D9
:1004F800BF01C001061A812A822A862A0130AD006E
:100508000030AE00061E892A8A2A41282D032E04AF
:10051800031D8F2A902A41282B08013EAB002C0886
:100528000318013E003EAC002C08B1002B08B000B7
:100538003E08B3003D08B2000A128A11B0260A121A
:100548008A111530831203133D063E04031DAD2A9C
:10055800AE2AB32A1030BD000030BE00BB2A3D08C9
:10056800013EBD003E080318013E003EBE00AD013D
:0A057800AE0141280A128A110C2876
:10060000FF1B0A2B83137F1883170008840A031922
:10061000FF0A08007F087F398A000408840A03194A
:10062000FF0A8200613445346C3469346A346134C1
:1006300020346C346134203461346334633469347D
:10064000C334B3346E34203471347534653420349B
:100650006434653473346534613420347234653401
:1006600061346C3469347A346134723420347034D7
:1006700061347234613420346D346F3476346534CF
:100680007234203465346C34203463346134723411
:1006900072346F34003449346E34673472346534E4
:1006A0007334653420343134203473346934203465
:1006B00064346534733465346134203469346E34A1
:1006C0006734723465347334613472342034613485
:1006D00020346D346F3464346F34203463346F34B9
:1006E0006E34743472346F346C3420345534533473
:1006F000413452345434003449346E3467347234E3
:100700006534733465343A34203431342D342E3426
:10071000303467347234613464346F347334203469
:1007200032342D342E3439343034673472346134F9
:1007300064346F347334203433342D342E343134F4
:100740003834303467347234613464346F34733421
:10075000003445346C3469346A34613420346C3488
:100760006134203470346F347334693463346934E1
:100770006F346E342034643465346C342034733414
:100780006534723476346F34203432342034283473
:10079000613472347234693462346134293400341F
:1007A00049346E34673472346534733465342034BC
:1007B00065346C34203463346134723461346334AE
:1007C0007434653472342034613420346D346F34C1
:1007D00073347434723461347234203465346E345A
:1007E000203450344F34523454344234003445347D
:1007F0006C3469346A34613420346C3461342034AC
:1008000070346F3473346934633469346F346E34E4
:100810002034643465346C34203473346534723479
:1008200076346F34203431342034283461346234E7
:1008300061346A346F34293400342834353429342F
:10084000533461346C346934723420346434653424
:10085000203463346F346E34743472346F346C34D7
:10086000203470346F34723420345534533441346E
:100870005234543400344234693465346E3476343E
:1008800065346E34693464346F3420346134203418
:100890006E34753465347334743472346F34203488
:1008A000703472346F346734723461346D3461344F
:1008B0000034513475346534203461346334633426
:1008C00069346F346E342034643465347334653481
:1008D0006134203465346A34653463347534743477
:1008E000613472343F3400342834343429344D3484
:1008F0006F3473347434723461347234203470342D
:100900006F34743465346E34633469346F346D34E9
:100910006534743472346F340034283432342934FA
:1009200043346F346E34743472346F346C346134E5
:100930007234203443346134723472346F3400348E
:1009400028343134293443346F346E34743472347F
:100950006F346C3461347234203442347234613414
:100960007A346F34003428343334293443346F34C8
:100970006E34743472346F346C34613472342034B5
:100980004C34453444347334003483120313061852
:10099000CA2CCB2CF72C79087A040319D02CD12C33
:1009A000E52C0A3085000330F2008A30F100553022
:1009B000F000F00BD92CF10BD92CF20BD92CE02C38
:1009C0000830831203138500F72C023085000330B2
:1009D000F2008A30F1005530F000F00BED2CF10BF5
:1009E000ED2CF20BED2CF42C8312031385018618E9
:1009F000FA2CFB2C272D79087A040319002D012DE0
:100A0000152D093085000330F2008A30F100553091
:100A1000F000F00B092DF10B092DF20B092D102D13
:100A20000830831203138500272D01308500033021
:100A3000F2008A30F1005530F000F00B1D2DF10B63
:100A40001D2DF20B1D2D242D831203138501061974
:100A50002A2D2B2D332D083085000130F900003070
:100A6000FA00051685168619362D372D3F2D0430D0
:100A700085000130F9000030FA0005178517861D42
:100A8000422D432D4A2D061D462D472D4A2D850109
:100A9000F901FA010B1008000B1C4F2D502D552D9C
:100AA0000A128A11C5240A128A11831203138C1E9A
:100AB0005A2D5B2D5F2D1A08F3007308AF000C1F31
:100AC000622D632DC72D1F0CF300730C0F39053AEF
:100AD000031D6B2D6C2D922D1E0888000808F30055
:100AE0000310730C803E95000818772D7B2D831220
:100AF000031397167E2D8312031397128316031385
:100B00001E08F30007300310F30CFF3E031D832D76
:100B10007308F400F40E8312031317087406EF39F8
:100B2000740697001F0CF300730C0F39073A031D6E
:100B30009A2D9B2DA02D1E08F3007308FB00C62DD7
:100B40001E0888000808F3000310730C803E9B0009
:100B50000818AB2DAF2D831203139D16B22D8312EF
:100B600003139D12831603131E08F30007300310AE
:100B7000F30CFF3E031DB72D7308F400F40E83122F
:100B800003131D087406EF3974069D000C137608D4
:100B90008A00750E8300FE0E7E0E09008316031771
:100BA000890170308800FF308316031386008501A9
:100BB000073089008801B93087008113FF30950024
:100BC0008312031385010F30860089018801870194
:100BD000831603139F131F129F12831203131F0800
:100BE0003F3980389F001F08C33914389F002030D8
:100BF00083120313B000B00BFB2D0000831203130C
:100C00001F14FA308316031392003F30831203132C
:100C100097051708F0390C3897001D08F0390C3883
:100C20009D000F3095000F309B00CF3097059D122F
:100C30001D128C109214121412158C1C202E212EB1
:100C40001D2E8C1083160313181218158316031704
:100C50008715CF308316031399009A01831203136B
:100C60009817181318168316031398160800831282
:100C70000313B901BA01662E39083407B7003508E5
:100C8000B6000318B60AB91F462EB6038312031323
:100C90003608B8003808FF00370884000A128A11A5
:100CA00000230A128A1199000D3083120313B70032
:100CB000FB30B600B60B5A2EB70B5A2E01308312FA
:100CC0000313B9070318BA0A0030BA073408B00092
:100CD0003508B1000A128A118C260A128A11831271
:100CE000031331083A02031D772E30083902031C22
:100CF0007A2E7B2E3C2E0D3099000D30831203137B
:100D0000B700FB30B600B60B832EB70B832E0B302B
:100D10008312031399000800831203133008B200F2
:100D20003108B300992E0130B2070318B30A00301E
:100D3000B3073308FF00320884000A128A11002327
:100D40000A128A11003A031DA62EA72E932E3008F0
:100D50003202B0003108031C310A3302B10008002E
:100D6000831203133208831203178D0083120313B7
:100D70003008831203178C00831603178C130C158D
:100D80008B1355308D00AA308D008C140C118B17ED
:100D900008000A128A11F7260A128A110A128A1109
:100DA000CE250A128A110A128A11DE260A128A1127
:100DB0000A128A11FE260A128A1108008B178B1557
:100DC0000B100B17831603130C17831203130C134A
:100DD000831603138C16831203138C12080064000D
:100DE0008001840A0406031900340406F02E8316D9
:100DF00003130F178F160F160F1408000F308316EA
:100E0000031396000B100800103400340134003432
:04400E00C420FF3F8C
:00000001FF
