:020000040000FA
:060000000A128A110C280F
:10000800FE00030EFB000A08FC000A128A11602F8A
:100018000A128A110F280A128A15A4240A128A11B0
:10002800D0000A128A15A5240A128A11D1000A12D0
:100038008A15A6240A128A11D2000A128A15A72440
:100048000A128A11D3000A128A11FF270A128A118A
:10005800FD0083132030840040300A128A11F727EC
:100068000A128A1183010A128A113A280A128A1579
:10007800BF240A128A11831203139F149F1845285C
:10008800462879281F0CCB004B0C0F39053A031D65
:100098004E284F2854281F08C33918389F006F2846
:1000A8001F0CCB004B0C0F39063A031D5C285D284A
:1000B80062281F08C33914389F006F281F0CCB0013
:1000C8004B0C0F39073A031D6A286B286F281F0845
:1000D800C33914389F00203083120313CB00CB0B95
:1000E80073280000831203139F140C1E7C287D289C
:1000F800672C520853040319822883289028C33098
:10010800C4008530C5000A128A1535250A128A11DD
:1001180083120313D201D30131303F06031D952802
:100128009628672C0130D2000030D300BF014E2C36
:10013800520853040319A128A228F128D630C40074
:100148008630C5000A128A1535250A128A11F4303C
:1001580083120313C4008630C5000A128A15352598
:100168000A128A113B3083120313C4008730C5007A
:100178000A128A1535250A128A11283083120313A8
:10018800C4008730C5000A128A1535250A128A115B
:100198004E3083120313C4008730C5000A128A1533
:1001A80035250A128A110F3083120313C4008730D1
:1001B800C5000A128A1535250A128A11B830831229
:1001C8000313C4008630C5000A128A1535250A12A1
:1001D8008A1183120313D201D30131303F06031D64
:1001E800F628F7283E2A7230C4008630C5000A1265
:1001F8008A1535250A128A11F43083120313C400B4
:100208008530C5000A128A1535250A128A1101306F
:1002180083120313D2000030D300BF013F08031933
:1002280016291729122931303F06031D1C291D29BB
:10023800422988010808CB0003104B0C803E95002A
:10024800081827292B298312031397162E2983129E
:1002580003139712831603131E0883120313CB008C
:1002680007300310CB0CFF3E031D35294B08CC008B
:10027800CC0E17084C06EF394C06970032303F0673
:10028800031D472948296E29803088000808CB00BB
:1002980003104B0C803E95000818532957298312E8
:1002A800031397165A2983120313971283160313FD
:1002B8001E0883120313CB0007300310CB0CFF3E3C
:1002C800031D61294B08CC00CC0E17084C06EF39EA
:1002D8004C06970033303F06031D732974299A2969
:1002E800FF3088000808CB0003104B0C783E9500BF
:1002F80008187F29832983120313971686298312E6
:1003080003139712831603131E0883120313CB00DB
:1003180007300310CB0CFF3E031D8D294B08CC0082
:10032800CC0E17084C06EF394C0697004B30C4002A
:100338008630C5000A128A1535250A128A11F4304A
:1003480083120313C4008530C5000A128A153525A7
:100358000A128A11013083120313D2000030D3002D
:10036800BF013F080319B929BA29B52931303F0619
:10037800031DBF29C029E52988010808CB000310FF
:100388004B0C803E9B000818CA29CE298312031300
:100398009D16D129831203139D12831603131E0879
:1003A80083120313CB0007300310CB0CFF3E031D51
:1003B800D8294B08CC00CC0E1D084C06EF394C064A
:1003C8009D0032303F06031DEA29EB29112A8030AF
:1003D80088000808CB0003104B0C803E9B000818CF
:1003E800F629FA29831203139D16FD298312031394
:1003F8009D12831603131E0883120313CB000730C4
:100408000310CB0CFF3E031D042A4B08CC00CC0E76
:100418001D084C06EF394C069D0033303F06031D7E
:10042800162A172A3D2AFF3088000808CB00031037
:100438004B0C783E9B000818222A262A83120313A5
:100448009D16292A831203139D12831603131E086F
:1004580083120313CB0007300310CB0CFF3E031DA0
:10046800302A4B08CC00CC0E1D084C06EF394C0640
:100478009D00BF0132303F06031D432A442AD82A73
:100488005830C4008530C5000A128A1535250A126D
:100498008A118F3083120313C4008530C5000A12F5
:1004A8008A1535250A128A11013083120313D200E6
:1004B8000030D300BF013F080319632A642A5F2A6A
:1004C80031303F06031D692A6A2A702A08308500E0
:1004D8000130D2000030D30032303F06031D752AA8
:1004E800762A7C2A043085000230D2000030D300FE
:1004F80033303F06031D812A822AA62A0930850047
:10050800093083120313CD001E30CC00E330CB003A
:10051800CB0B8C2ACC0B8C2ACD0B8C2A932A8312DA
:10052800031352035304031D9A2A9B2A9D2A083059
:100538008500023052065304031DA32AA42AA62AC2
:100548000430850034303F06031DAB2AAC2AD02A7C
:100558000A308500093083120313CD001E30CC0009
:10056800E330CB00CB0BB62ACC0BB62ACD0BB62A80
:10057800BD2A8312031352035304031DC42AC52A38
:10058800C72A08308500023052065304031DCD2ABD
:10059800CE2AD02A0430850035303F06031DD52ADF
:1005A800D62AD72A8501BF0133303F06031DDD2A2D
:1005B800DE2A562B2130C4008630C5000A128A155F
:1005C80035250A128A11133083120313C4008530AB
:1005D800C5000A128A1535250A128A1101308312BC
:1005E8000313D2000030D300BF013F080319FD2ACE
:1005F800FE2AF92A31303F06031D032B042B062B54
:100608000516851632303F06031D0B2B0C2B0E2BBF
:100618000517851733303F06031D132B142B532B57
:10062800CE01CF018312031305168516051785170A
:10063800033083120313CD008A30CC005530CB0031
:10064800CB0B242BCC0B242BCD0B242B8312031385
:100658000512851205138513033083120313CD0089
:100668008A30CC005530CB00CB0B382BCC0B382B39
:10067800CD0B382B013083120313CE070318CF0A92
:100688000030CF074F08803AFF0080307F02031DFB
:100698004F2B03304E02031C522B532B162B831265
:1006A8000313BF0134303F06031D5B2B5C2B4E2C1C
:1006B8000130D2000030D3001F08C3391C389F0016
:1006C800203083120313CB00CB0B682B000083125E
:1006D80003139F14203083120313CB00CB0B722B10
:1006E8000000831203131E08CB00CC014B08B9008D
:1006F8004C08BA00203083120313CB00CB0B822B9B
:100708000000831203133A08B8003908B7006430B0
:10071800C0000030C1003808C3003708C2000A1200
:100728008A158A250A128A11831203134108B60012
:100738004008B5003608C1003508C0009C30C2002A
:10074800FF30C3000A128A150E250A128A11831275
:10075800031337084007B70038080318380A410759
:10076800B8000A30C0000030C1003808C30037089C
:10077800C2000A128A158A250A128A1183120313E3
:100788004108B4004008B3003408C1003308C00071
:10079800F630C200FF30C3000A128A150E250A126D
:1007A8008A118312031337084007B7003808031863
:1007B800380A4107B8003808B2003708B100983045
:1007C800C4008630C5000A128A1535250A128A1116
:1007D800831203133608C1003508C0000A128A15AF
:1007E8005C260A128A1183120313400899001A30F2
:1007F80083120313CC00F730CB00CB0B012CCC0BAE
:10080800012C062C831203133408C1003308C000DE
:100818000A128A155C260A128A11831203134008E9
:1008280099001A3083120313CC00F730CB00CB0B9E
:100838001B2CCC0B1B2C202C831203133208C10059
:100848003108C0000A128A155C260A128A1183121E
:100858000313400899001A3083120313CC00F730B1
:10086800CB00CB0B352CCC0B352C3A2C0D3083120E
:10087800031399001A3083120313CC00F730CB000E
:10088800CB0B442CCC0B442C492C0B308312031378
:1008980099009A2835303F06031D532C542C9C2868
:1008A80035303F06031D592C5A2C672CC330C40021
:1008B8008530C5000A128A1535250A128A11831255
:1008C8000313D201D301061A6A2C6B2C6F2C01304A
:1008D800AF000030B000061E722C732C42282F0384
:1008E8003004031D782C792C42283E08CB00CC011B
:1008F8004B08AD004C08AE002E08C1002D08C00002
:100908005108C3005008C2000A128A11E0240A12D2
:100918008A1117308312031350065104031D952CB6
:10092800962C9B2C1030D0000030D100A32C5008FE
:10093800013ED00051080318013E003ED1001A3094
:1009480083120313CC00F730CB00CB0BA92CCC0BB4
:10095800A92CAE2C831203133D08CB00CC014B0805
:10096800AD004C08AE002E08C1002D08C00051088B
:10097800C3005008C2000A128A11E0240A128A1120
:1009880017308312031350065104031DCC2CCD2CB1
:10099800D22C1030D0000030D100DA2C5008013EA3
:1009A800D00051080318013E003ED100AF01B0014C
:1009B80042280A128A110C28831203134208831250
:1009C80003178D00831203134008831203178C004A
:1009D800831603178C130C158B1355308D00AA3012
:1009E8008D008C140C118B170800831603130F1736
:1009F8008F160F160F140800FF1B0A2D83137F187C
:100A080083170008840A0319FF0A08007F087F3942
:100A18008A000408840A0319FF0A82006134313409
:100A28002E3445346E34633465346E34643465343E
:100A3800723420346C346534643473342034643450
:100A480065346C3461346E347434653472346134B2
:100A58007334203432342E3445346E346334653480
:100A68006E3464346534723420346C3465346434E0
:100A780073342034743472346134733465347234AA
:100A880061347334203433342E3450346134723446
:100A980070346134643465346134723420346C34B5
:100AA800653464347334003445346C3469346A34DE
:100AB800613420346C3461342034613463346334F9
:100AC80069346F346E3420347134753465342034AD
:100AD8006434653473346534613420347234653475
:100AE80061346C3469347A3461347234203470344B
:100AF80061347234613420346D346F347634653443
:100B08007234203465346C34203463346134723484
:100B180072346F34003431342E3446346F347234C6
:100B28007734613472346434203432342E344634A9
:100B38006F3472346234613463346B342034333448
:100B48002E345434753472346E342034723469342B
:100B5800673474346834203434342E34543475345F
:100B680072346E3420346C34653466347434203412
:100B780035342E34533474346F347034003449347B
:100B88006E346734723465347334653420343134E8
:100B980020347334693420346434653473346534F0
:100BA8006134203469346E34673472346534733494
:100BB800613472342034613420346D346F346434D9
:100BC8006F34203463346F346E34743472346F3459
:100BD8006C34203455345334413452345434003452
:100BE80049346E34673472346534733465343A3456
:100BF800203431342D342E34303467347234613437
:100C080064346F347334203432342D342E34393410
:100C1800303467347234613464346F34733420345C
:100C280033342D342E34313438343034673472341C
:100C3800613464346F347334003449346E34673447
:100C4800723465347334653420346C346134203440
:100C580061346334633469346F346E3420346134FE
:100C680020347234653461346C3469347A346134D4
:100C78007234203463346F346E3420346C346F34FF
:100C8800733420346C34653464347334003445343C
:100C98006C3469346A34613420346C3461342034FF
:100CA80070346F3473346934633469346F346E3438
:100CB8002034643465346C342034733465347234CD
:100CC80076346F342034323420342834613472342A
:100CD80072346934623461342934003445346C34F4
:100CE80069346A34613420346C34613420347034AB
:100CF8006F3473346934633469346F346E34203438
:100D0800643465346C342034733465347234763426
:100D18006F342034313420342834613462346134FF
:100D28006A346F342934003445346C3420347634D2
:100D380061346C346F347234203465346E3420344A
:100D480064346534633469346D3461346C3420340C
:100D5800643465346C34203470346F347434203423
:100D6800653473343A3400342834353429345334F0
:100D780061346C346934723420346434653420341A
:100D880063346F346E34743472346F346C3420349A
:100D980070346F34723420345534533441345234FF
:100DA800543400344234693465346E3476346534EE
:100DB8006E34693464346F342034613420346E34D2
:100DC800753465347334743472346F342034703449
:100DD80072346F346734723461346D346134003482
:100DE8005134753465342034613463346334693480
:100DF8006F346E342034643465347334653461344C
:100E0800203465346A346534633475347434613439
:100E180072343F3400342834343429344D346F3438
:100E280073347434723461347234203470346F34EF
:100E3800743465346E34633469346F346D346534B6
:100E4800743472346F3400342834323429344334DF
:100E58006F346E34743472346F346C346134723479
:100E6800203443346134723472346F34003428349B
:100E78003134293443346F346E34743472346F34FB
:100E88006C346134723420344234723461347A34CC
:100E98006F34003428343334293443346F346E3497
:100EA800743472346F346C346134723420344C349A
:100EB80045344434733400340B1C632F642F692F7A
:100EC8000A128A15D5260A128A11831203138C1E58
:100ED8006E2F6F2F732F1A08F9007908BF000C1FA7
:100EE800762F772FF02F1F0CF900790C0F39053A60
:100EF800031D7F2F802FAB2F1E0888000808F900DC
:100F08007908BE000808F9000310790C803E9500A6
:100F180008188F2F932F831203139716962F831277
:100F280003139712831603131E08F90007300310E2
:100F3800F90CFF3E031D9B2F7908FA00FA0E831265
:100F4800031317087A06EF397A069700EF2F1F0C5C
:100F5800F900790C0F39073A031DB32FB42FBC2FB2
:100F68001E08F900FA017908B9007A08BA00EF2FCB
:100F78001F0CF900790C0F39063A031DC42FC52F31
:100F8800EF2F1E0888000808F9007908BD00080836
:100F9800F9000310790C803E9B000818D42FD82F35
:100FA800831203139D16DB2F831203139D128316DE
:100FB80003131E08F90007300310F90CFF3E031D48
:100FC800E02F7908FA00FA0E831203131D087A0637
:100FD800EF397A069D000C137C088A007B0E83008B
:100FE800FE0E7E0E090064008001840A04060319BF
:080FF80000340406F82F103448
:101948001034003401340034FF308316031396003A
:101958000B1008008B178B150B100B17831603132E
:101968000C17831203130C13831603138C1683129C
:1019780003138C1208000A128A11F9240A128A1514
:101988000A128A15F3250A128A150A128A15AE2434
:101998000A128A150A128A15A8240A128A1508003A
:1019A8007008831203178D00831603178C130C1409
:1019B800831203170C08F200F3017208F40073088D
:1019C800F5007508F1007408F0000800831203138D
:1019D8004008C2004108C300F72C0130C2070318B1
:1019E800C30A0030C3074308FF00420884000A12F4
:1019F8008A1100250A128A15003A031D042D052DA7
:101A0800F12C40084202C0004108031C410A43026D
:101A1800C100080083120313C401C501401C152D21
:101A2800162D1C2D4208C4070318C50A4308C5070C
:101A380001300310C20DC30DFF3E031D1D2D0130E3
:101A48000310C10CC00CFF3E031D242D40084104A7
:101A5800031D2F2D302D122D4508C1004408C0004C
:101A6800080083120313C901CA01642D49084407F9
:101A7800C7004508C6000318C60AC91F442DC60377
:101A8800831203134608C8004808FF00470884006B
:101A98000A128A1100250A128A1599000D3083123C
:101AA8000313C700FB30C600C60B582DC70B582DB3
:101AB800013083120313C9070318CA0A0030CA0782
:101AC8004408C0004508C1000A128A15EA240A120F
:101AD8008A158312031341084A02031D752D400815
:101AE8004902031C782D792D3A2D0D3099000D30BF
:101AF80083120313C700FB30C600C60B812DC70B2A
:101B0800812D0B30831203139900080083120313ED
:101B1800C601C11F902D912D982DC009C109C00A79
:101B28000319C10AC601C60AC31F9B2D9C2DA52DEA
:101B3800C209C309C20A0319C30A0130C400440810
:101B4800C606C701C801400841040319AC2DAD2DD4
:101B5800E42DC501C50ABB2D01300310C00DC10D10
:101B6800FF3E031DB12D0130C4004408C507C11F45
:101B7800BE2DBF2DB02D01300310C70DC80DFF3E7F
:101B8800031DC02D41084302031DCC2D400842020D
:101B9800031CCF2DD02DD72D4008C2024108031CAD
:101BA800C303C302471401300310C10CC00CFF3E2D
:101BB800031DD82D0130C502031DE32DE42DBF2DD3
:101BC80046080319E82DE92DEE2DC709C809C70AEB
:101BD8000319C80A4808C1004708C000080083164E
:101BE80003178901E0308800FF308316031386004D
:101BF8008501073089008801B93087008113FF30DB
:101C08009500831203138501FF308600890188013E
:101C18008701831603139F131F129F128312031346
:101C28001F083F3980389F001F08C33914389F00A8
:101C3800203083120313C000C00B202E0000831233
:101C480003131F14FA308316031392003F308312D4
:101C5800031397051708F0390C3897001D08F03959
:101C68000C389D000F3095000F309B00CF30970542
:101C78009D121D128C109214121412158C1C452ED4
:101C8800462E422E8C10831603131812181583162D
:101C980003178715CF308316031399009A0183120F
:101CA80003139817181318168316031398160800A9
:101CB8008312031340084104031D632E642E692E0A
:101CC8003030C0000030C100D42E40034104031D51
:101CD8006E2E6F2E742E3130C0000030C100D42E0D
:101CE800023040064104031D7A2E7B2E802E3230AE
:101CF800C0000030C100D42E033040064104031D4B
:101D0800862E872E8C2E3330C0000030C100D42E92
:101D1800043040064104031D922E932E982E343031
:101D2800C0000030C100D42E053040064104031D18
:101D38009E2E9F2EA42E3530C0000030C100D42E18
:101D4800063040064104031DAA2EAB2EB02E3630B5
:101D5800C0000030C100D42E073040064104031DE6
:101D6800B62EB72EBC2E3730C0000030C100D42E9E
:101D7800083040064104031DC22EC32EC82E383039
:101D8800C0000030C100D42E093040064104031DB4
:101D9800CE2ECF2ED42E3930C0000030C100D42E24
:101DA8000800831203130618DA2EDB2E092F3B08CE
:101DB8003C040319E02EE12EF62E0A3085000516A4
:101DC8000930F8001E30F700E430F600F60BEA2E72
:101DD800F70BEA2EF80BEA2E0000083083120313E3
:101DE8008500092F0230850005160930F8001E30DD
:101DF800F700E430F600F60BFF2EF70BFF2EF80B7A
:101E0800FF2E000083120313850186180C2F0D2F57
:101E18003B2F3B083C040319122F132F282F09309E
:101E2800850085160930F8001E30F700E430F6000A
:101E3800F60B1C2FF70B1C2FF80B1C2F000008307B
:101E48008312031385003B2F013085008516093066
:101E5800F8001E30F700E430F600F60B312FF70BD0
:101E6800312FF80B312F0000831203138501061957
:101E78003E2F3F2F472F083085000130BB00003030
:101E8800BC000516851686194A2F4B2F532F043090
:101E980085000130BB000030BC0005178517861D82
:101EA800562F572F5E2F061D5A2F5B2F5E2F850149
:101EB800BB01BC01861A612F622FFE2F7D08F60038
:101EC800F7017608F0007708F1000A128A15D42481
:101ED8000A128A15700883120313880017307D06CA
:101EE800031D772F782F7D2F1030F6007608FD0020
:101EF800812F0130F6007608FD070808F600031068
:101F0800760C783E950008188A2F8E2F83120313BB
:101F18009716912F831203139712831603131E0823
:101F2800F60007300310F60CFF3E031D962F7608C7
:101F3800F700F70E8312031317087706EF397706B1
:101F480097001A30F700F830F600F60BA92FF70BB8
:101F5800A92F00007D08F600F7017608F000770841
:101F6800F1000A128A15D4240A128A1570088312FD
:101F78000313880017307D06031DC32FC42FC92FF4
:101F88001030F6007608FD00CD2F0130F6007608F7
:101F9800FD070808F6000310760C803E9B00081821
:101FA800D62FDA2F831203139D16DD2F8312031306
:101FB8009D12831603131E08F60007300310F60C53
:101FC800FF3E031DE22F7608F700F70E8312031376
:101FD8001D087706EF3977069D003330F800BB30CF
:101FE800F700DF30F600F60BF72FF70BF72FF80B9B
:081FF800F72FFE2F0B1008006B
:04400E00C420FF3F8C
:00000001FF
