:020000040000FA
:060000000A128A110C280F
:10000800FE00030EF5000A08F6000A128A11F62C03
:100018000A128A110F280A128A11A1260A128A11B5
:10002800BD000A128A11A2260A128A11BE000A12FB
:100038008A11A3260A128A11BF000A128A11A4265D
:100048000A128A11C00083132030840030300A124B
:100058008A118C260A128A11F701F801F901FA01AE
:1000680083010A128A1138280A128A1166260A128E
:100078008A11831203139F149F1843284428602869
:100088001F0CBB003B0C0F39053A031D4C284D28AB
:1000980052281F08C33918389F0056281F08C3392B
:1000A80014389F00203083120313BB00BB0B5A285F
:1000B8000000831203139F140C1E632864284F2A20
:1000C8003F084004031969286A28AE284030B40064
:1000D8008330B5000A128A11D4250A128A11033016
:1000E80083120313B4008430B5000A128A11D42590
:1000F8000A128A114A3083120313B4008430B500FF
:100108000A128A11D4250A128A113730831203136E
:10011800B4008430B5000A128A11D4250A128A1153
:100128005D3083120313B4008430B5000A128A11BB
:10013800D4250A128A111E3083120313B4008430A6
:10014800B5000A128A11D4250A128A1183120313E0
:10015800BF01C00131302F06031DB328B428FB2985
:10016800DD30B4008330B5000A128A11D4250A1292
:100178008A11133083120313B4008330B5000A12B6
:100188008A11D4250A128A11013083120313BF0081
:100198000030C000AF012F080319D328D428CF2876
:1001A80031302F06031DD928DA28FF2888010808CE
:1001B800BB0003103B0C803E95000818E428E82893
:1001C800831203139716EB288312031397128316CF
:1001D80003131E0883120313BB0007300310BB0C64
:1001E800FF3E031DF2283B08BC00BC0E17083C0666
:1001F800EF393C06970032302F06031D04290529E4
:100208002B29803088000808BB0003103B0C803E77
:100218009500081810291429831203139716172913
:10022800831203139712831603131E0883120313F2
:10023800BB0007300310BB0CFF3E031D1E293B0803
:10024800BC00BC0E17083C06EF393C06970033305B
:100258002F06031D302931295729FF308800080847
:10026800BB0003103B0C803E950008183C29402930
:1002780083120313971643298312031397128316C5
:1002880003131E0883120313BB0007300310BB0CB3
:10029800FF3E031D4A293B08BC00BC0E17083C065C
:1002A800EF393C0697006830B4008330B5000A1275
:1002B8008A11D4250A128A11133083120313B40049
:1002C8008330B5000A128A11D4250A128A11013026
:1002D80083120313BF000030C000AF012F080319B9
:1002E80076297729722931302F06031D7C297D292B
:1002F800A22988010808BB0003103B0C803E9B0024
:10030800081887298B29831203139D168E298312B7
:1003180003139D12831603131E0883120313BB00D5
:1003280007300310BB0CFF3E031D95293B08BC009A
:10033800BC0E1D083C06EF393C069D0032302F06E6
:10034800031DA729A829CE29803088000808BB00EA
:1003580003103B0C803E9B000818B329B729831271
:1003680003139D16BA29831203139D1283160313D0
:100378001E0883120313BB0007300310BB0CFF3E9B
:10038800031DC1293B08BC00BC0E1D083C06EF3903
:100398003C069D0033302F06031DD329D429FA29A2
:1003A800FF3088000808BB0003103B0C803E9B0010
:1003B8000818DF29E329831203139D16E6298312FF
:1003C80003139D12831603131E0883120313BB0025
:1003D80007300310BB0CFF3E031DED293B08BC0092
:1003E800BC0E1D083C06EF393C069D00AF013230BB
:1003F8002F06031D002A012A172A8F30B4008330E4
:10040800B5000A128A11D4250A128A110130831202
:100418000313BF000030C000AF012F080319152ACD
:10042800162A112AAF0133302F06031D1C2A1D2A54
:10043800332AB630B4008330B5000A128A11D425A5
:100448000A128A11013083120313BF000030C00062
:10045800AF012F080319312A322A2D2AAF0134306F
:100468002F06031D382A392A4F2AB630B4008330A4
:10047800B5000A128A11D4250A128A110130831292
:100488000313BF000030C000AF012F0803194D2A25
:100498004E2A492AAF01061A522A532A572A0130EE
:1004A800AD000030AE00061E5A2A5B2A40282D03F4
:1004B8002E04031D602A612A40282B08013EAB0048
:1004C8002C080318013E003EAC002C08B1002B0894
:1004D800B0003E08B3003D08B2000A128A114D264A
:1004E8000A128A111530831203133D063E04031DB8
:1004F8007E2A7F2A842A1030BD000030BE008C2A54
:100508003D08013EBD003E080318013E003EBE0006
:0C051800AD01AE0140280A128A110C2827
:10060000FF1B0A2B83137F1883170008840A031922
:10061000FF0A08007F087F398A000408840A03194A
:10062000FF0A8200613449346E34673472346534B1
:10063000733465343A34203431342D342E3430342C
:1006400067347234613464346F3473342034323438
:100650002D342E3439343034673472346134643498
:100660006F347334203433342D342E3431343834F1
:10067000303467347234613464346F34733400342A
:100680004234693465346E34763465346E3469349A
:1006900064346F342034613420346E3475346534FE
:1006A0007334743472346F342034703472346F3471
:1006B0006734723461346D34613420347434653499
:1006C00072347234693463346F346C34613400349E
:1006D00045346C3469346A34613420346C346134A8
:1006E000203470346F3473346934633469346F3454
:1006F0006E342034643465346C342034733465349F
:10070000723476346F3420343234203428346134F7
:1007100072347234693462346134293400344934B7
:100720006E34673472346534733465342034653420
:100730006C3420346334613472346134633474341F
:10074000653472342034613420346D346F34733442
:100750007434723461347234203465346E3420342D
:1007600050344F34523454344134003449346E34AC
:1007700067347234653473346534203465346C34D2
:1007800020346334613472346134633474346534D6
:1007900072342034613420346D346F3473347434E3
:1007A000723461347234203465346E342034503401
:1007B0004F34523454344234003445346C34693448
:1007C0006A34613420346C346134203470346F34D2
:1007D00073346934633469346F346E342034643470
:1007E00065346C34203473346534723476346F3449
:1007F00020343134203428346134623461346A3432
:100800006F34293400345134753465342034613404
:100810006334633469346F346E3420346434653443
:10082000733465346134203465346A346534633438
:1008300075347434613472343F34003428343434C1
:1008400029344D346F3473347434723461347234F7
:10085000203470346F34743465346E3463346934E6
:100860006F346D346534743472346F34003428342A
:100870003234293443346F346E34743472346F3408
:100880006C346134723420344334613472347234E1
:100890006F34003428343134293443346F346E34A7
:1008A000743472346F346C346134723420344234B2
:1008B000723461347A346F34003428343334293458
:1008C00043346F346E34743472346F346C34613446
:1008D000723420344C34453444347334003483123D
:1008E00003130618742C752CA12C79087A040319AB
:1008F0007A2C7B2C8F2C0A3085000330F2008A3052
:10090000F1005530F000F00B832CF10B832CF20B2F
:10091000832C8A2C0830831203138500A12C02300B
:1009200085000330F2008A30F1005530F000F00B02
:10093000972CF10B972CF20B972C9E2C8312031300
:1009400085018618A42CA52CD12C79087A040319CA
:10095000AA2CAB2CBF2C093085000330F2008A3062
:10096000F1005530F000F00BB32CF10BB32CF20B6F
:10097000B32CBA2C0830831203138500D12C01301C
:1009800085000330F2008A30F1005530F000F00BA2
:10099000C72CF10BC72CF20BC72CCE2C83120313E0
:1009A00085010619D42CD52CDD2C083085000130AA
:1009B000F9000030FA00051685168619E02CE12CA6
:1009C000E92C043085000130F9000030FA000517E9
:1009D0008517861DEC2CED2CF42C061DF02CF12C2B
:1009E000F42C8501F901FA010B1008000B1CF92CFD
:1009F000FA2CFF2C0A128A116F240A128A11831210
:100A000003138C1E042D052D092D1A08F3007308FD
:100A1000AF000C1F0C2D0D2D642D1F0CF300730C5B
:100A20000F39053A031D152D162D3D2D1E08880082
:100A30000808F3000310730C803E95000818212D60
:100A4000252D831203139716282D83120313971253
:100A5000831603131E08F30007300310F30CFF3E48
:100A6000031D2D2D7308F400F40E831203131708D1
:100A70007406EF3974069700632D1E088800080875
:100A8000F3000310730C803E9B000818482D4C2D7A
:100A9000831203139D164F2D831203139D12831689
:100AA00003131E08F30007300310F30CFF3E031D71
:100AB000542D7308F400F40E831203131D087406FA
:100AC000EF3974069D000C1376088A00750E8300BA
:100AD000FE0E7E0E09008316031789017030880010
:100AE000FF308316031386008501033089008801D7
:100AF000B93087008113FF309500831203138501FD
:100B00000F308600890188018701831603139F1324
:100B10001F129F12831203131F083F3980389F0052
:100B20001F08C33914389F00203083120313B0000C
:100B3000B00B982D0000831203131F14FA30831694
:100B4000031392003F308312031397051708F039FF
:100B50000C3897001D08F0390C389D000F309500B7
:100B60000F309B00CF3097059D121D128C109214F0
:100B7000121412158C1CBD2DBE2DBA2D8C1083168F
:100B8000031318121815831603178715CF30831611
:100B9000031399009A018312031398171813181658
:100BA000831603139816080083120313B901BA01C0
:100BB000032E39083407B7003508B6000318B60A03
:100BC000B91FE32DB603831203133608B8003808A3
:100BD000FF00370884000A128A1100230A128A11C2
:100BE00099000D3083120313B700FB30B600B60B2B
:100BF000F72DB70BF72D013083120313B907031834
:100C0000BA0A0030BA073408B0003508B1000A1239
:100C10008A1129260A128A118312031331083A0213
:100C2000031D142E30083902031C172E182ED92D3F
:100C30000D3099000D3083120313B700FB30B6005E
:100C4000B60B202EB70B202E0B3083120313990006
:100C50000800831203133008B2003108B300362EA7
:100C60000130B2070318B30A0030B3073308FF009E
:100C7000320884000A128A1100230A128A11003AEB
:100C8000031D432E442E302E30083202B0003108AE
:100C9000031C310A3302B100080083120313320827
:100CA000831203178D008312031330088312031776
:100CB0008C00831603178C130C158B1355308D0085
:100CC000AA308D008C140C118B1708000A128A119F
:100CD00094260A128A110A128A116B250A128A11A5
:100CE0000A128A117B260A128A110A128A119B267D
:100CF0000A128A1108008B178B150B100B1783161D
:100D000003130C17831203130C13831603138C168F
:100D1000831203138C12080064008001840A040605
:100D20000319003404068D2E831603130F178F1634
:100D30000F160F1408000F308316031396000B10C4
:0A0D400008001034003401340034C0
:04400E00C420FF3F8C
:00000001FF
