:020000040000FA
:060000000A128A110C280F
:10000800FE00030EFB000A08FC000A128A114D2F9D
:100018000A128A110F280A128A15B3240A128A11A1
:10002800C5000A128A15B4240A128A11C6000A12D7
:100038008A15B5240A128A11C7000A128A15B6242D
:100048000A128A11C8000A128A11FD270A128A1197
:10005800FD0083132030840035300A128A11F624FB
:100068000A128A1183010A128A113A280A128A1579
:10007800D5240A128A11831203139F149F18452846
:10008800462879281F0CC000400C0F39053A031D7B
:100098004E284F2854281F08C33918389F006F2846
:1000A8001F0CC000400C0F39063A031D5C285D2860
:1000B80062281F08C33914389F006F281F0CC0001E
:1000C800400C0F39073A031D6A286B286F281F0850
:1000D800C33914389F00203083120313C000C00BAB
:1000E80073280000831203139F140C1E7C287D289C
:1000F800672C470848040319822883289028B030C1
:10010800B9008530BA000A128A1535250A128A11F3
:1001180083120313C701C80131303406031D952823
:100128009628672C0130C7000030C800B4014E2C57
:10013800470848040319A128A228F128C330B900A8
:100148008630BA000A128A1535250A128A11E1305A
:1001580083120313B9008630BA000A128A153525AE
:100168000A128A11283083120313B9008730BA00A3
:100178000A128A1535250A128A11153083120313BB
:10018800B9008730BA000A128A1535250A128A1171
:100198003B3083120313B9008730BA000A128A155C
:1001A80035250A128A11FC3083120313B9008630F0
:1001B800BA000A128A1535250A128A11A530831247
:1001C8000313B9008630BA000A128A1535250A12B7
:1001D8008A1183120313C701C80131303406031D85
:1001E800F628F7283E2A5F30B9008630BA000A128E
:1001F8008A1535250A128A11E13083120313B900D2
:100208008530BA000A128A1535250A128A1101307A
:1002180083120313C7000030C800B401340803195F
:1002280016291729122931303406031D1C291D29C6
:10023800422988010808C0000310400C803E950040
:10024800081827292B298312031397162E2983129E
:1002580003139712831603131E0883120313C00097
:1002680007300310C00CFF3E031D35294008C100AC
:10027800C10E17084106EF3941069700323034069F
:10028800031D472948296E29803088000808C000C6
:100298000310400C803E95000818532957298312F3
:1002A800031397165A2983120313971283160313FD
:1002B8001E0883120313C00007300310C00CFF3E52
:1002C800031D61294008C100C10E17084106EF3916
:1002D8004106970033303406031D732974299A297F
:1002E800FF3088000808C0000310400C783E9500D5
:1002F80008187F29832983120313971686298312E6
:1003080003139712831603131E0883120313C000E6
:1003180007300310C00CFF3E031D8D294008C100A3
:10032800C10E17084106EF39410697003830B90069
:100338008630BA000A128A1535250A128A11E13068
:1003480083120313B9008530BA000A128A153525BD
:100358000A128A11013083120313C7000030C80043
:10036800B40134080319B929BA29B529313034063A
:10037800031DBF29C029E52988010808C00003100A
:10038800400C803E9B000818CA29CE29831203130B
:100398009D16D129831203139D12831603131E0879
:1003A80083120313C00007300310C00CFF3E031D67
:1003B800D8294008C100C10E1D084106EF39410681
:1003C8009D0032303406031DEA29EB29112A8030BA
:1003D80088000808C0000310400C803E9B000818E5
:1003E800F629FA29831203139D16FD298312031394
:1003F8009D12831603131E0883120313C0000730CF
:100408000310C00CFF3E031D042A4008C100C10EA2
:100418001D084106EF3941069D0033303406031D9F
:10042800162A172A3D2AFF3088000808C000031042
:10043800400C783E9B000818222A262A83120313B0
:100448009D16292A831203139D12831603131E086F
:1004580083120313C00007300310C00CFF3E031DB6
:10046800302A4008C100C10E1D084106EF39410677
:100478009D00B40132303406031D432A442AD82A89
:100488004530B9008530BA000A128A1535250A1296
:100498008A117C3083120313B9008530BA000A121E
:1004A8008A1535250A128A11013083120313C700F1
:1004B8000030C800B40134080319632A642A5F2A8B
:1004C80031303406031D692A6A2A702A08308500EB
:1004D8000130C7000030C80032303406031D752AC9
:1004E800762A7C2A043085000230C7000030C80014
:1004F80033303406031D812A822AA62A0930850052
:10050800093083120313C2001E30C100E330C0005B
:10051800C00B8C2AC10B8C2AC20B8C2A932A8312FB
:10052800031347034804031D9A2A9B2A9D2A08306F
:100538008500023047064804031DA32AA42AA62AD8
:100548000430850034303406031DAB2AAC2AD02A87
:100558000A308500093083120313C2001E30C1001F
:10056800E330C000C00BB62AC10BB62AC20BB62AAC
:10057800BD2A8312031347034804031DC42AC52A4E
:10058800C72A08308500023047064804031DCD2AD3
:10059800CE2AD02A0430850035303406031DD52AEA
:1005A800D62AD72A8501B40133303406031DDD2A43
:1005B800DE2A562B0E30B9008630BA000A128A1588
:1005C80035250A128A11003083120313B9008530C9
:1005D800BA000A128A1535250A128A1101308312C7
:1005E8000313C7000030C800B40134080319FD2AFA
:1005F800FE2AF92A31303406031D032B042B062B5F
:100608000516851632303406031D0B2B0C2B0E2BCA
:100618000517851733303406031D132B142B532B62
:10062800C301C40183120313051685160517851720
:10063800033083120313C2008A30C1005530C00052
:10064800C00B242BC10B242BC20B242B83120313A6
:100658000512851205138513033083120313C20094
:100668008A30C1005530C000C00B382BC10B382B65
:10067800C20B382B013083120313C3070318C40AB3
:100688000030C4074408803AFF0080307F02031D11
:100698004F2B03304302031C522B532B162B831270
:1006A8000313B40134303406031D5B2B5C2B4E2C32
:1006B8000130C7000030C8001F08C3391C389F002C
:1006C800203083120313C000C00B682B0000831274
:1006D80003139F14203083120313C000C00B722B26
:1006E8000000831203131E08C000C1014008AE00B9
:1006F8004108AF00203083120313C000C00B822BC7
:100708000000831203132F08AD002E08AC006430DC
:10071800B5000030B6002D08B8002C08B7000A1242
:100728008A158A250A128A11831203133608AB0028
:100738003508AA002B08B6002A08B5009C30B70077
:10074800FF30B8000A128A150E250A128A11831280
:1007580003132C083507AC002D0803182D0A36079B
:10076800AD000A30B5000030B6002D08B8002C08DE
:10077800B7000A128A158A250A128A1183120313EE
:100788003608A9003508A8002908B6002808B500C9
:10079800F630B700FF30B8000A128A150E250A1283
:1007A8008A11831203132C083507AC002D0803188F
:1007B8002D0A3607AD002D08A7002C08A6008530A5
:1007C800B9008630BA000A128A1535250A128A112C
:1007D800831203132B08B6002A08B5000A128A15DB
:1007E8005C260A128A1183120313350899001A30FD
:1007F80083120313C100F730C000C00B012CC10BDA
:10080800012C062C831203132908B6002808B5000A
:100818000A128A155C260A128A11831203133508F4
:1008280099001A3083120313C100F730C000C00BBF
:100838001B2CC10B1B2C202C831203132708B6007A
:100848002608B5000A128A155C260A128A11831234
:100858000313350899001A3083120313C100F730C7
:10086800C000C00B352CC10B352C3A2C0D3083122F
:10087800031399001A3083120313C100F730C00024
:10088800C00B442CC10B442C492C0B30831203138E
:1008980099009A2835303406031D532C542C9C2873
:1008A80035303406031D592C5A2C672CB030B9004A
:1008B8008530BA000A128A1535250A128A11831260
:1008C8000313C701C801061A6A2C6B2C6F2C013060
:1008D800A4000030A500061E722C732C42282403A5
:1008E8002504031D782C792C42283308C000C10147
:1008F8004008A2004108A3002308B6002208B5005A
:100908004608B8004508B7000A128A11E4270A12F7
:100918008A1117308312031345064604031D952CCC
:10092800962C9B2C1030C5000030C600A32C45081F
:10093800013EC50046080318013E003EC6001A30B5
:1009480083120313C100F730C000C00BA92CC10BE0
:10095800A92CAE2C831203133208C000C101400831
:10096800A2004108A3002308B6002208B5004608E3
:10097800B8004508B7000A128A11E4270A128A113A
:1009880017308312031345064604031DCC2CCD2CC7
:10099800D22C1030C5000030C600DA2C4508013EC4
:1009A800C50046080318013E003EC600A401A50183
:1009B80042280A128A110C287008831203178D0026
:1009C800831603178C130C14831203170C08F200F8
:1009D800F3017208F4007308F5007508F100740853
:1009E800F000080064008001840A0406031900343A
:0409F8000406F72CCE
:100A000031342E3445346E34633465346E3464349A
:100A10006534723420346C34653464347334203477
:100A2000643465346C3461346E34743465347234D7
:100A300061347334203432342E3445346E346334AC
:100A400065346E3464346534723420346C34653407
:100A500064347334203474347234613473346534E0
:100A6000723461347334203433342E34503461346E
:100A700072347034613464346534613472342034D7
:100A80006C34653464347334003445346C34693404
:100A90006A34613420346C3461342034613463341A
:100AA000633469346F346E34203471347534653492
:100AB00020346434653473346534613420347234E2
:100AC000653461346C3469347A346134723420347E
:100AD000703461347234613420346D346F34763460
:100AE00065347234203465346C34203463346134BA
:100AF000723472346F34003431342E3446346F34EF
:100B000072346234613463346B34203432342E34C2
:100B100046346F3472347734613472346434203440
:100B200033342E345434753472346E342034723489
:100B30006934673474346834203434342E34543493
:100B4000753472346E3420346C34653466347434E5
:100B5000203435342E34533474346F3470340034CC
:100B600049346E34673472346534733465342034F8
:100B7000313420347334693420346434653473344C
:100B800065346134203469346E34673472346534CA
:100B90007334613472342034613420346D346F34F2
:100BA00064346F34203463346F346E34743472348C
:100BB0006F346C342034553453344134523454340B
:100BC000003449346E3467347234653473346534B8
:100BD0003A34203431342D342E3430346734723486
:100BE000613464346F347334203432342D342E3411
:100BF0003934303467347234613464346F3473346C
:100C0000203433342D342E34313438343034673496
:100C10007234613464346F347334003449346E3464
:100C20006734723465347334653420346C34613421
:100C3000203461346334633469346F346E34203467
:100C4000613420347234653461346C3469347A34FC
:100C500061347234203463346F346E3420346C3435
:100C60006F34733420346C3465346434733400343A
:100C700045346C3469346A34613420346C34613402
:100C8000203470346F3473346934633469346F34AE
:100C90006E342034643465346C34203473346534F9
:100CA000723476346F342034323420342834613452
:100CB0007234723469346234613429340034453416
:100CC0006C3469346A34613420346C3461342034D7
:100CD00070346F3473346934633469346F346E3410
:100CE0002034643465346C342034733465347234A5
:100CF00076346F3420343134203428346134623413
:100D000061346A346F342934003445346C3420340F
:100D1000763461346C346F347234203465346E341C
:100D2000203464346534633469346D3461346C3434
:100D30002034643465346C34203470346F3474344B
:100D40002034653473343A3400342834353429344B
:100D5000533461346C34693472342034643465340F
:100D6000203463346F346E34743472346F346C34C2
:100D7000203470346F347234203455345334413459
:100D80005234543400344234693465346E34763429
:100D900065346E34693464346F3420346134203403
:100DA0006E34753465347334743472346F34203473
:100DB000703472346F346734723461346D3461343A
:100DC0000034513475346534203461346334633411
:100DD00069346F346E34203464346534733465346C
:100DE0006134203465346A34653463347534743462
:100DF000613472343F3400342834343429344D346F
:100E00006F34733474347234613472342034703417
:100E10006F34743465346E34633469346F346D34D4
:100E20006534743472346F340034283432342934E5
:100E300043346F346E34743472346F346C346134D0
:100E40007234203443346134723472346F34003479
:100E500028343134293443346F346E34743472346A
:100E60006F346C34613472342034423472346134FF
:100E70007A346F34003428343334293443346F34B3
:100E80006E34743472346F346C34613472342034A0
:100E90004C3445344434733400340B1C502F512FE0
:100EA000562F0A128A15D5260A128A1183120313A5
:100EB0008C1E5B2F5C2F602F1A08F9007908B40094
:100EC0000C1F632F642FDD2F1F0CF900790C0F39D5
:100ED000053A031D6C2F6D2F982F1E0888000808F7
:100EE000F9007908B3000808F9000310790C803E76
:100EF000950008187C2F802F831203139716832FD9
:100F0000831203139712831603131E08F900073088
:100F10000310F90CFF3E031D882F7908FA00FA0E22
:100F20008312031317087A06EF397A069700DC2F2D
:100F30001F0CF900790C0F39073A031DA02FA12FC0
:100F4000A92F1E08F900FA017908AE007A08AF004F
:100F5000DC2F1F0CF900790C0F39063A031DB12F55
:100F6000B22FDC2F1E0888000808F9007908B200AB
:100F70000808F9000310790C803E9B000818C12F67
:100F8000C52F831203139D16C82F831203139D12BE
:100F9000831603131E08F90007300310F90CFF3EF7
:100FA000031DCD2F7908FA00FA0E831203131D08D2
:100FB0007A06EF397A069D000C137C088A007B0EB6
:100FC0008300FE0E7E0E090083120313370883127E
:100FD00003178D00831203133508831203178C0047
:100FE000831603178C130C158B1355308D00AA3004
:0C0FF0008D008C140C118B1708001034BD
:10100000FF1B0A2883137F1883170008840A03191B
:10101000FF0A08007F087F398A000408840A031940
:04102000FF0A820041
:101966001034003401340034FF308316031396001C
:101976000B100800831603130F178F160F160F147C
:1019860008008B178B150B100B17831603130C17F8
:10199600831203130C13831603138C16831203137B
:1019A6008C1208000A128A15BD240A128A150A1218
:1019B6008A15F3250A128A150A128A15C4240A12F0
:1019C6008A150A128A15B7240A128A150800831284
:1019D60003133508B7003608B800F72C0130B707EF
:1019E6000318B80A0030B8073808FF003708840023
:1019F6000A128A1500200A128A15003A031D042DC0
:101A0600052DF12C35083702B5003608031C360AB9
:101A16003802B600080083120313B901BA01351C57
:101A2600152D162D1C2D3708B9070318BA0A3808C4
:101A3600BA0701300310B70DB80DFF3E031D1D2D6B
:101A460001300310B60CB50CFF3E031D242D3508DE
:101A56003604031D2F2D302D122D3A08B6003908F5
:101A6600B500080083120313BE01BF01642D3E08B2
:101A76003907BC003A08BB000318BB0ABE1F442D39
:101A8600BB03831203133B08BD003D08FF003C085F
:101A960084000A128A1500200A128A1599000D3050
:101AA60083120313BC00FB30BB00BB0B582DBC0BD1
:101AB600582D013083120313BE070318BF0A0030E6
:101AC600BF073908B5003A08B6000A128A15EA2493
:101AD6000A128A158312031336083F02031D752D59
:101AE60035083E02031C782D792D3A2D0D309900CC
:101AF6000D3083120313BC00FB30BB00BB0B812DE2
:101B0600BC0B812D0B30831203139900080083123E
:101B16000313BB01B61F902D912D982DB509B6095B
:101B2600B50A0319B60ABB01BB0AB81F9B2D9C2D2B
:101B3600A52DB709B809B70A0319B80A0130B900C3
:101B46003908BB06BC01BD01350836040319AC2DA6
:101B5600AD2DE42DBA01BA0ABB2D01300310B50D27
:101B6600B60DFF3E031DB12D0130B9003908BA0785
:101B7600B61FBE2DBF2DB02D01300310BC0DBD0DFF
:101B8600FF3E031DC02D36083802031DCC2D350837
:101B96003702031CCF2DD02DD72D3508B7023608B6
:101BA600031CB803B8023C1401300310B60CB50C84
:101BB600FF3E031DD82D0130BA02031DE32DE42D8F
:101BC600BF2D3B080319E82DE92DEE2DBC09BD09F3
:101BD600BC0A0319BD0A3D08B6003C08B50008005A
:101BE600831603178901E0308800FF30831603133C
:101BF60086008501073089008801B9308700811386
:101C0600FF309500831203138501FF30860089019A
:101C160088018701831603139F131F129F128312D5
:101C260003131F083F3980389F001F08C339143833
:101C36009F00203083120313B500B50B202E000041
:101C4600831203131F14FA308316031392003F30D6
:101C56008312031397051708F0390C3897001D08EF
:101C6600F0390C389D000F3095000F309B00CF30B7
:101C760097059D121D128C109214121412158C1CAD
:101C8600452E462E422E8C10831603131812181555
:101C9600831603178715CF308316031399009A010D
:101CA600831203139817181318168316031398161E
:101CB60008008312031335083604031D632E642EB1
:101CC600692E3030B5000030B600D42E3503360408
:101CD600031D6E2E6F2E742E3130B5000030B60007
:101CE600D42E023035063604031D7A2E7B2E802E26
:101CF6003230B5000030B600D42E03303506360437
:101D0600031D862E872E8C2E3330B5000030B6008C
:101D1600D42E043035063604031D922E932E982EAB
:101D26003430B5000030B600D42E05303506360402
:101D3600031D9E2E9F2EA42E3530B5000030B60012
:101D4600D42E063035063604031DAA2EAB2EB02E31
:101D56003630B5000030B600D42E073035063604CE
:101D6600031DB62EB72EBC2E3730B5000030B60098
:101D7600D42E083035063604031DC22EC32EC82EB7
:101D86003830B5000030B600D42E0930350636049A
:101D9600031DCE2ECF2ED42E3930B5000030B6001E
:101DA600D42E0800831203130618DA2EDB2E092F11
:101DB600300831040319E02EE12EF62E0A30850094
:101DC60005160930F8001E30F700E430F600F60B71
:101DD600EA2EF70BEA2EF80BEA2E000008308312E3
:101DE60003138500092F0230850005160930F80017
:101DF6001E30F700E430F600F60BFF2EF70BFF2E31
:101E0600F80BFF2E000083120313850186180C2F92
:101E16000D2F3B2F300831040319122F132F282FB3
:101E26000930850085160930F8001E30F700E430C9
:101E3600F600F60B1C2FF70B1C2FF80B1C2F0000BF
:101E460008308312031385003B2F01308500851669
:101E56000930F8001E30F700E430F600F60B312F9B
:101E6600F70B312FF80B312F000083120313850176
:101E760006193E2F3F2F472F083085000130B0004E
:101E86000030B1000516851686194A2F4B2F532FA1
:101E9600043085000130B0000030B1000517851709
:101EA600861D562F572F5E2F061D5A2F5B2F5E2F2E
:101EB6008501B001B101861A612F622FFE2F7D08C0
:101EC600F600F7017608F0007708F1000A128A1189
:101ED600E0240A128A15700883120313880017304B
:101EE6007D06031D772F782F7D2F1030F60076089C
:101EF600FD00812F0130F6007608FD070808F60080
:101F06000310760C783E950008188A2F8E2F8312C0
:101F160003139716912F8312031397128316031335
:101F26001E08F60007300310F60CFF3E031D962F21
:101F36007608F700F70E8312031317087706EF39B2
:101F4600770697001A30F700F830F600F60BA92F3F
:101F5600F70BA92F00007D08F600F7017608F000C0
:101F66007708F1000A128A11E0240A128A1570080D
:101F760083120313880017307D06031DC32FC42F59
:101F8600C92F1030F6007608FD00CD2F0130F6007F
:101F96007608FD070808F6000310760C803E9B00C5
:101FA6000818D62FDA2F831203139D16DD2F8312FE
:101FB60003139D12831603131E08F6000730031041
:101FC600F60CFF3E031DE22F7608F700F70E83128C
:101FD60003131D087706EF3977069D003330F800A6
:101FE600BB30F700DF30F600F60BF72FF70BF72FB5
:0A1FF600F80BF72FFE2F0B10080068
:04400E00C420FF3F8C
:00000001FF
