:020000040000FA
:060000000A128A110C280F
:10000800FE00030EF1000A08F2000A128A11572AAC
:100018000A128A110F280A128A1168220A128A11F2
:10002800F7000A128A1169220A128A11F800A0013F
:10003800A101A201A301A401A501A601A701A8018C
:10004800A901AA01F90183010A128A11F628FF1BE6
:10005800352883137F1883170008840A0319FF0AB9
:10006800080000308A000408840A820700346134DA
:1000780049346E34673472346534733465342034EB
:1000880065346C34203463346134723461346334DD
:100098007434653472342034613420346D346F34F0
:1000A80073347434723461347234203465346E3489
:1000B800203450344F3452345434413400344934A9
:1000C8006E3467347234653473346534203465347F
:1000D8006C3420346334613472346134633474347E
:1000E800653472342034613420346D346F347334A1
:1000F8007434723461347234203465346E3420348C
:1001080050344F3452345434423400342834313467
:10011800293444346534733470346C34653467344A
:1001280061347234203463346134643465346E3439
:100138006134203464346534203463346134723477
:100148006134633474346534723465347334003420
:10015800513475346534203461346334633469341C
:100168006F346E34203464346534733465346134E8
:10017800203465346A3465346334753474346134D6
:1001880072343F34003428343234293443346134EF
:100198006D346234693461347234203450344F34ED
:1001A80052345434413400342834333429344334F9
:1001B80061346D34623469346134723420345034BB
:1001C8004F34523454344234003468346F346C340D
:1001D800613420346D3475346E3464346F342134B2
:1001E800203400340A128A11E3210A128A11AF302E
:1001F80083120313B2003208F30020300A128A1166
:1002080036220A128A11033083120313B40008300D
:10021800B3007630B200B20B0F29B30B0F29B40B21
:100228000F290000831203130C1E1B291C29072900
:10023800770878040319212922294E297230AB0046
:100248008030AC000A128A11A8210A128A11503093
:1002580083120313AB008030AC000A128A11A82164
:100268000A128A118D3083120313AB008030AC0060
:100278000A128A11A8210A128A119E3083120313C6
:10028800AB008030AC000A128A11A8210A128A1128
:10029800F701F80131307906031D532954296429DF
:1002A800203083120313AB000030AC000A128A110D
:1002B800A8210A128A110130F7000030F800F9016C
:1002C80032307906031D69296A298429023083128C
:1002D8000313AB008030AC000A128A11A8210A125D
:1002E8008A110130F7000030F800F9017908031984
:1002F8007E297F297A297908831203138500F90159
:1003080033307906031D89298A2907292930831260
:100318000313AB008030AC000A128A11A8210A121C
:100328008A110130F7000030F800F9017908031943
:100338009E299F299A297908831203138600F901B7
:1003480007290A128A110C2883120313B001B1017C
:10035800CB2930082B07AE002C08AD000318AD0AD6
:10036800B01FB729AD03831203132D08AF002F0860
:10037800FF002E0884000A128A112B200A128A1103
:1003880099000130B0070318B10A0030B1072B08F3
:10039800F3002C08F4000A128A1112220A128A1198
:1003A8007408831203133102031DDC297308300219
:1003B800031CDF29E029AD290D30990008008316B8
:1003C80003130F178F160F160F14831603178901BF
:1003D800880183160313850186018312031385019F
:1003E80086018B170B17831603138C1683120313BE
:1003F8008C12831603131812181583160317871502
:10040800CF308316031399009A01831203139817A8
:100418001813181683160313981608007308F500A6
:100428007408F6001D2A0130F5070318F60A003093
:10043800F607760883120313FF00750884000A1272
:100448008A112B200A128A11003A031D2C2A2D2A00
:10045800172A73087502F3007408031C740A7602DD
:10046800F4000800F5007508F4007408F600442A42
:100478000130F4007408F6070130F4007408F3073B
:10048800730884000A128A1135200A128A11F400AE
:10049800760884007408831380000008031D552A19
:1004A800562A3C2A0800831203138C1E5C2A5D2AF4
:1004B800612A1A08F0007008F90072088A00710EA3
:0C04C8008300FE0E7E0E0900013400349B
:04400E00C430FF3F7C
:00000001FF
