:020000040000FA
:060000000A128A110C280F
:10000800FE00030EF2000A08F3000A128A1168289B
:100018000A128A110F2883010A128A11782883127A
:1000280003130618182819282728023085001A30C3
:10003800F100F830F000F00B1F28F10B1F2800002A
:1000480083120313850186182A282B2839280130A2
:1000580085001A30F100F830F000F00B3128F10B70
:100068003128000083120313850106193C283D2816
:100078003F28083085000B1008000A128A118120D9
:100088000A128A110A128A1156200A128A110A12B1
:100098008A118E200A128A110A128A1188200A12DD
:1000A8008A1108008316031789018801073083160F
:1000B800031386008501811307309500831203130B
:1000C80085010730860008000B1C6B286C287128F6
:1000D8000A128A1113200A128A1173088A00720EF2
:1000E8008300FE0E7E0E09000A128A1141200A12B0
:1000F8008A117D280A128A110C28831603130F17F8
:100108008F160F160F140800073083160313960076
:0C0118000B1008008B178B150B10080053
:04400E00C420FF3F8C
:00000001FF
